:020000040000FA
:10000000F00E0020D5000000EF000000F10000001D
:1000100000000000000000000000000000000000E0
:10002000000000000000000000000000F3000000DD
:100030000000000000000000F5000000F7000000D4
:10004000F9000000F9000000D106000009060000D8
:100050001D06000000000000F9000000F90000008B
:10006000F9000000F9000000F9000000F9000000AC
:10007000F9000000F9000000F9000000F90000009C
:10008000F9000000F9000000F9000000F90000008C
:10009000F9000000F9000000F9000000F90000007C
:1000A000F9000000F900000000000000000000005E
:1000B0000000000000000000000000000000000040
:1000C0000348854600F0FCF900480047410F000056
:1000D000F00E00200321094802680A430260084824
:1000E00002680A4302600748804707480047FEE766
:1000F000FEE7FEE7FEE7FEE7FEE70000240500401E
:100100005405004031060000C100000003460B43C7
:100110009B0703D009E008C9121F08C0042AFAD2BD
:1001200003E00B78491C0370401C521EF9D2704743
:10013000F0B51FB488B00B9909980024484009997C
:10014000C00F490049080991C0070B990090490068
:1001500049080B9109990898A646084303D00B99C2
:100160000A98084303D1002001460DB0F0BD09985C
:1001700001244000420D4800410D09982405000368
:10018000000B204309900B980003000B20430B90B9
:1001900050181A494018002201901446104601E0F8
:1001A000032801DA034600E003239C46C11A0AAE85
:1001B0000AE05F0008ADED5B4F00F75B7D43002771
:1001C000AA187C415B1E491C6145F2DD410004AB6D
:1001D0005A522104120C0A43240C401C0828DFDB6D
:1001E000019802900099704601910090059B049A35
:1001F0000799069800F010F9B7E700000DFCFFFF23
:10020000F0B50C465C4085B0E40FE40703944C0065
:100210000026640859009446490802460296224383
:1002200021D062460A431ED06200570D4A000E03D9
:100230002303550D012402462C492405781B1B0B72
:10024000360B401823432643614600901C46501A43
:10025000B44103D30098401C009002E0921800982B
:100260005B41002803DA0020014605B0F0BD002004
:10027000012109050746864611E064461D46141B08
:10028000B54106D36546521BB341744607430C4340
:10029000A646CD0740084908284392185B41054609
:1002A0000D43EAD11046184313D06046194650401A
:1002B0007140084303D100220123DB0709E06046B7
:1002C000101AB34102D20122002302E00122D243DC
:1002D0005310009874460105381C6141029C039D2F
:1002E0000019694100F08BF8BFE70000FD03000032
:1002F0000EB5C217C10F5040CA0740180021054B68
:100300000293019200910A460B4600F085F803B073
:1003100000BD0000330400000EB505490291002124
:1003200000910A460B46019100F076F803B000BD3B
:100330003304000070B5CD0F4A0009030123090BF7
:100340001B0519430B4BED070024520D9A4201DAAD
:10035000002070BD074B34339A4203DC9A1A00F038
:100360003DF802E00449511888402C43F1D0404246
:1003700070BD0000FF030000CDFBFFFFF0B51FB410
:100380000646002082B005464024019100901BE003
:10039000019922460F46304600F020F8049A059B4A
:1003A000801A994110D310461946224600F09AF857
:1003B000361A8F410197224601200021009F00F04C
:1003C00091F838184D4100902046641E0028DFDC6B
:1003D000019B00982946324607B0F0BD10B5202A8F
:1003E00004DB0846203AD040002110BD0B46D34024
:1003F000D0402024A21A91400843194610BD10B5E0
:10040000002B08DA0024401C614192185B411A431A
:1004100001D14008400010BDF0B51FB482B00546C0
:100420000C0003D0084600F06DF902E000F06AF914
:100430002030024600902146284600F053F8049BE5
:10044000059A04460F4618431143084303D120463A
:10045000394607B0F0BD1846104317D00098402128
:100460000A1A18460599FFF7B9FF05460E46009A85
:100470000599049800F036F8084301D0012000E007
:100480000020C11705430E432C43374300990E98B3
:100490006305401A7905E40A0A3000220C43FD0A7C
:1004A000002802DA00200146D3E70105101969414E
:1004B0000C9C0D9D00196941FFF7A1FFC9E70000E1
:1004C000064C0125064E05E02046E36807C82B438D
:1004D00098471034B442F7D3FFF7F6FDC41F00006D
:1004E000E41F000010B5202A04DB0146203A9140A9
:1004F000002010BD914020239C1A0346E34019437D
:10050000904010BD10B51E2001F062F8002001F0EF
:100510005FF8012001F05CF8022001F059F810BDED
:10052000F0B58BB00821102001F0A2F90446092192
:10053000102001F09DF905460A21102001F098F9DC
:1005400006460B21102001F093F900902046FFF79A
:10055000E3FE04460F462846FFF7DEFE054630461A
:100560000591FFF7D9FE029003910098FFF7D4FEA2
:1005700006460B460191324620463946FFF740FEBB
:1005800006900C4632462846019B0599FFF738FE37
:100590000D4604903246019B03990298FFF730FE06
:1005A00006460F460022164B21460698FFF7C0FD6F
:1005B000FFF7C0FE04460022114B30463946FFF7D4
:1005C000B7FDFFF7B7FE064600220D4B29460498FB
:1005D000FFF7AEFDFFF7AEFE05462046FFF788FEAB
:1005E000084C616020603046FFF782FEE160A06049
:1005F0002846FFF77DFE6161206120460BB0F0BD0B
:1006000000E06F403000002010B50249024800F0C1
:100610001DFC10BD480200200030004010B502490A
:10062000024800F013FC10BD7002002000400040A2
:1006300010B500F061FC002805D01F491D48486036
:10064000C8131E4988611E48018CC9B201290BD10B
:10065000828C120708D1028D1206120F042A03D1D0
:10066000828D1206120F0AD0012921D1818C09072F
:100670001ED1018D0906090F0A2904D007E0114A8D
:1006800001219160F5E7828D1206120F05D00D2928
:100690000ED1808D0006000F0AD10B480168012998
:1006A00004D00A49016001680129FCD1C0214161DF
:1006B00010BD0000DFFF07C000050040006C0040D7
:1006C000C00F00F00006004000EC064075930000EB
:1006D00010B50249024801F081FB10BD98020020CC
:1006E000002000400FB410B503A9044B044A02983F
:1006F00000F02EF810BC08BC04B018473F0E0000F4
:10070000180000202021020C01D010211046020AFE
:1007100001D008391046020901D0091F104682088D
:1007200001D0891E1046420801D0881E7047081A61
:10073000704702E008C8121F08C1002AFAD17047AA
:100740007047002001E001C1121F002AFBD1704751
:10075000FFB591B00F4605460026F9E0252876D171
:1007600000246D1CFB4A0094012102942B7808465A
:10077000203B98400346134202D004436D1CF5E72A
:1007800028782A280ED0022128780246303A092AF1
:1007900015D8009A0A235A43303A80180C436D1C2E
:1007A0000090F1E701CF0090002805DA0120400316
:1007B0000443009840420090022004436D1C2878B6
:1007C0002E2815D1042004436D1C28782A280AD12C
:1007D00001CF6D1C02900BE002990A22514330397F
:1007E00040186D1C02902878014630390929F3D948
:1007F00028786C2810D006DC4C281AD068280ED037
:100800006A2817D104E0742813D07A2812D110E096
:100810000120400504430CE00121090501E003210A
:1008200009050C436978814203D101206D1C000544
:1008300024186D1C287803906E281FD00DDC6328C7
:1008400033D005DC00287DD0582812D1BEE010E05E
:10085000642801D069280CD181E073282FD004DCF2
:100860006F2870D0702804D1B2E075286CD0782839
:100870006BD0149A13999047761C68E06002400F81
:10088000022807D003280AD0042838680AD03F1D60
:1008900006605CE001CFF1170660416057E001CFD0
:1008A000068054E03F1D067051E0387869460874B0
:1008B0000020487404A83F1D0390012003E001CFED
:1008C00003900020C04361070FD5002101E001998A
:1008D000491C029A0191914213DA8142F7DB019A95
:1008E0000399895C0029F2D10BE0002101E0019914
:1008F000491C01918142FADB019A0399895C002924
:10090000F5D101990098139A401A00902146149B42
:1009100000F046F901998019461807E003980399F9
:100920000078491C0391149A139990470198401E2E
:100930000190401CF2D12146149B139A009800F0BC
:100940001FF903E008E04CE03EE03FE086196D1C33
:100950002878002800D001E7304615B0F0BD0A2005
:100960000021049005916002410F022905D001CFBA
:10097000C2179446032907D009E0FF1DFF08FF00B6
:1009800079683868083706E000B2C217944604292F
:1009900002D140B2C1178C4600226146944506DA66
:1009A0000A460021404291418C462D2102E021055A
:1009B00004D52B216A461176012103E0E10701D01D
:1009C0002021F7E7019150E00A200BE0102009E018
:1009D0001020049000210420044308200591029077
:1009E00003E008200021059104906002410F0229D4
:1009F00005D001CF00229446032908D008E0FF1D4E
:100A0000FF08FF007968386808378C4603E080B239
:100A1000042900D1C0B200210191210725D50399F5
:100A200070292AD0049A1021059B4A401A4309D103
:100A30006146014306D030216A461176039951760A
:100A400002210191049A0821059B4A401A430CD1C6
:100A50006146014301D1610707D530216A4611760D
:100A6000012101910299491E02910399582909D047
:100A700039A103910FA90F9112E040216A46117626
:100A80000121DEE739A1F4E76146059B049AFFF7EF
:100A900075FC039B8C469B5C0F9A521E0F92137041
:100AA00061460143F0D10F9807A9081A203003903E
:100AB000600704D5012000048443029801E001206E
:100AC00002900399884201DD401A00E0002041189D
:100AD0000290019809180098401A0090E00306D48B
:100AE0002146149B139A009800F05AF886190020AA
:100AF00007E006A9085C149A139990470498761C9D
:100B0000401C019904908842F3DBE0030CD5214698
:100B1000149B139A009800F043F8861904E0149A85
:100B2000302013999047761C0299481E02900029A4
:100B3000F5DC08E00F980F990078491C0F91149A82
:100B400013999047761C0399481E03900029F1DC05
:100B5000F1E60000092801003031323334353637F0
:100B600038396162636465660000000030313233F9
:100B70003435363738394142434445460000000099
:100B8000F8B5044600251E461746880404D405E03F
:100B900039462020B0476D1C641EF9D52846F8BDA3
:100BA000FFB50446002581B01E46C80301D5302795
:100BB00000E02027880404D505E038460399B047B3
:100BC0006D1C641EF9D5284605B0F0BD09A10120B1
:100BD00000F000FE00F052FD00F056FD0028FBD1B1
:100BE000BFF34F8F0A490948C860BFF34F8F00BF5A
:100BF000FDE700004150505F4552524F523A455276
:100C0000524F523A466174616C0D0A000400FA05B5
:100C100000ED00E00EB50021029000916A460191BE
:100C20000148FFF7D3FF0EBD0140000010B58268F8
:100C3000C3689A1A03D000F0EFF8002010BD052019
:100C400010BD002906D0002A02D0531E134203D043
:100C5000092070470E207047016083800021816069
:100C6000C1600846704710B58268C3689A1A8388C5
:100C70009A4203D800F0DAF8002010BD042010BD1D
:100C8000F0B5274E89B01F460D00044672601CD097
:100C9000A888296882B22348FFF7D3FF002815D11E
:100CA000A889A96882B21F481030FFF7CAFF002840
:100CB0000CD120221C496846FFF728FA606906908B
:100CC000207C002804D0012103E0072009B0F0BDFA
:100CD0000021684601750777607C002800D00E204F
:100CE00069464875E0680290A0680390206801900A
:100CF000606800900A480D4A083000F085FA002824
:100D0000E4D1B0702068401CE0D00548083000F005
:100D100019FB03490122491CC81D00F0E5FAD5E77B
:100D200008000020B4020020541F00001D1D000018
:100D300010B501460C48FFF796FF040012D10B488E
:100D400000F0CAFB00280DD1084907480839FFF711
:100D50006DFF002806D1054901220839034800F03B
:100D60005BFB0446204610BDC4020020100000209A
:100D700000B500F005F800BD00B500F009F800BDB1
:100D800072B602480168491C0160704704000020E7
:100D900003490868401E086000D162B67047000031
:100DA00004000020F8B5461C01250020FFF7E0FFF5
:100DB0001149741C0A6848688B68101A1F1A7F1C36
:100DC000BC4212D9002F0ED00C480D4C008824686C
:100DD00080051A40800DA402920020435218D06072
:100DE0000868401C0860002501E090190860002098
:100DF000FFF7C2FF2846F8BDD4020020941F000070
:100E000028000020034803C8814201D10120704717
:100E100000207047D4020020826883881A4003684B
:100E20009A5C0A708168491C81607047C268838837
:100E30001A4003689954C168491CC160704710B5D5
:100E40000446C0B2FFF774FF204610BDF0B50C4653
:100E50000D462035074685B06978287801910090C5
:100E600022462632D11E3846E36900F01AFE0028D9
:100E700019D1E87800281ED1207B022801D0032850
:100E800019D12269E169914215D16269E261E37B7E
:100E90002B70217E8906C90F6970032805D0394659
:100EA000204600F099FD05B0F0BD0091394620467E
:100EB00000F07CFEF7E7E0686269216901AB07C3D7
:100EC000E878002600280CD0384600F0A7FC8107FF
:100ED00001D5012002E0400705D5022069460870CF
:100EE00001E0684606702E71207E4007DBD4226840
:100EF000684661689047D6E71048018CC9B201295D
:100F000017D1818C090714D1018D09060A0F03D16D
:100F1000828D1206120F0ED0090F012903D1828D86
:100F20001206120F07D0032903D1808D0006000F8F
:100F300001D000207047012070470000C00F00F072
:100F40008AB0FFF7DFFA002401252846A040C0013F
:100F5000000F02D0204600F03BFB641C202CF4D391
:100F60000F211948490581600021C16018221749E5
:100F70006846FFF7CBF8FF2101311548069040186D
:100F80000791099108900323124A06A96846FFF7C2
:100F900077FE002801D0FFF73DFE0FA0FFF7A2FB70
:100FA00010A0FFF79FFB17A0FFF79CFB00F0EEFCE3
:100FB00018A0FFF797FB7D20C00000F037F8FFF77F
:100FC000AFFAFA20F9E7000000050050301F0000DA
:100FD00048000020071D00000D0A53746172743A26
:100FE000200D0A000D0A5374617274206265666FE9
:100FF0007265206572726F7220636865636B3A2058
:101000000D0A0000545749207363616E6E65722E9D
:101010000D0A00000D0A46696E69736865642074E4
:10102000776920696E69743A200D0A007D21C90034
:10103000484300280FD00849084A096800BF00BF8C
:1010400000BF00BF00BF00BF00BF00BF914200D083
:1010500000BF401EF2D17047000000200024F400C1
:1010600000280FD00849094A096800BF00BF00BF27
:1010700000BF00BF00BF00BF00BF914200D000BF53
:10108000401EF2D170470000000000200024F40050
:101090008207D30EFF229A408907090E10B59940A6
:1010A00000280BDA03071B0F083B9C080C4BA4001D
:1010B000E318DC6994430C43DC6107E08408094BC6
:1010C000A400E418236893430B432360C106C90EB0
:1010D00001208840044908600449086010BD0000F0
:1010E00000ED00E000E400E080E200E000E100E06C
:1010F000017928225143054A006889180522130204
:10110000C018026002202031887070474802002019
:10111000F8B507460C460079282148431B49451875
:101120002E462036B078002801D00820F8BD6B602C
:1011300000202A60A86070713071A07BF071607B24
:10114000002802D0204600F0D5FB216810488A0014
:10115000104952181060626892005118086038688F
:1011600005231B02C018626821688160C260A16803
:1011700041622868002805D03868217B000B40B206
:10118000FFF786FF0120B0700020F8BD4802002064
:101190000C060000000700503EB5074D2C68AD68F6
:1011A000009402956C466170A3700192002269461A
:1011B00000F016F83EBD0000481F00003EB50025B7
:1011C000069C009502956D466970AB700192002CEB
:1011D00001D0202200E00022294600F001F83EBDA7
:1011E00070B50D46017928235943064BCC18910759
:1011F00001D0062070BD134601682A46204600F043
:1012000021FD70BD48020020F7B505460C46007967
:101210001C21484331494618F07E002801D008209F
:10122000FEBD20780127394681402D488160206825
:1012300000F0D6F90021606800F0C1F929680522A4
:1012400012028918A0694862607D217D2A680843DE
:10125000152189015118C86262682168286800F068
:1012600001FB207D012810D10021A06800F0A7F922
:10127000207B394681401A488160E06800F0B0F96F
:10128000A268E168286800F0DFFA029870602169BE
:101290003160002814D0FF231D332A68217F0020ED
:1012A000D050FF232A684533D050032328681B02FF
:1012B0000C4AC01842602868000B40B2FFF7E8FEF5
:1012C0000521286804220902401802600020F075F8
:1012D0003076B075F776B076FEBD0000980200203B
:1012E0000005005080000200F8B503791C24634318
:1012F000134C81251C19032766680023AD003F02AB
:10130000002E02D00668F619B560E67D002E0ED0DC
:10131000237E002B07D06168002902D00068C01925
:1013200045601120F8BD21610123227604E0E275B9
:101330000025E1606576257600F01AF8F8BD00001A
:101340009802002070B5044600791C21074D4843DF
:101350004019807E002808D1204600F0BEFA20798E
:101360001C22012150434019817670BD9802002053
:10137000F8B5044600791C21484326494518A87E43
:10138000184302D1204600F0A8FA6868002808D067
:101390008121032220688900120280184160002008
:1013A000F8BDFF204530216800220A50FF21253179
:1013B000206800F044FA0646FF210931206800F059
:1013C0003EFA0090FF214531206800F038FA0746C8
:1013D000009838433043E9D03046384307D1294696
:1013E000206800F05DFAE87D697E8842DED8002042
:1013F000E875002E01D00320F8BD002F01D00F208A
:10140000F8BDA97E01200029216801D00860C6E747
:101410004860C4E79802002070B505460C46007984
:101420001C21484308494318284600F055F8002875
:1014300001D0112070BD9A7500209C6098822846CA
:1014400000F004F870BD000098020020F8B50446D2
:1014500000791C2148431F4900264518FF272068B2
:101460001D37C6512068012181602946206800F09F
:101470002FFC6968002913D029E0FF270137FF21DD
:101480001D31206800F0DBF9002802D1A88AB8429B
:10149000F5D1A88AB84203D02946206800F018FC8C
:1014A000A88AA97D8842E8D3A98AC81FF93801D142
:1014B0000F260AE0FF271D373946206800F0BFF9E4
:1014C0000028F9D020680121C1600020A8753046AD
:1014D000F8BD00009802002000791C214843034910
:1014E0004018807D002800D001207047980200201D
:1014F000FEB5044600791C214843204900224518C6
:1015000005202168000209180A60696800290CD0CA
:10151000032321681B021A4AC9188A602168C9037B
:10152000CA0E01219140174A116023681818C1683A
:10153000019141690091876806690022D2431846EB
:10154000114600F08FF90022D2431146206800F0C6
:101550007BF9019800F02AF8009800F027F8701C39
:1015600002D0304600F022F8781C02D0384600F055
:101570001DF80020E8766860FEBD0000980200209B
:101580008402020080E100E030B552000A43990075
:10159000039C0A432102049D0A4329040A43024989
:1015A00080004018026030BD000700501CB50021CB
:1015B00000910B4601220191FFF7E6FF1CBD1CB50F
:1015C00000220B46009211460192FFF7DDFF1CBD81
:1015D000024A032180008018016070470007005014
:1015E0001CB5002100910B46012201911146FFF725
:1015F000CBFF1CBD01218140014881607047000084
:101600000005005030B5194C0546207889B00028F7
:1016100005D06078854202D1002009B030BD20227B
:1016200013496846FEF772FD0020694608750920D7
:1016300000900B200190082003900A2002900D4892
:1016400006900A48001DFFF753FF002D01D000222D
:1016500000E0094A05486946001DFFF7D5FD00284E
:10166000DBD1012020706570D6E700001C0000204F
:10167000741F000000E0D701CD1D000010B501204F
:10168000FFF7C0FF10BD0000F0B58DB0FFF7BAFB4B
:10169000002802D000200DB0F0BD4B484468866899
:1016A00021463140890009180494CD680BE02904D3
:1016B000A80D890D40180419204630408100424889
:1016C00004940818C568641CA807F0D00020069090
:1016D000A807800F3D4B022807D0A80A8646A80518
:1016E000000F844607A9002059E0204630408100C1
:1016F0003548641C0818C068059486462804800D87
:1017000084463440301B8000AF0D001D874222D933
:101710002D490C31002807D02B4AA400A2181446EA
:101720000C34C2B2381A03E00C460021FAB2084663
:10173000C0B20192039002910094A8065C69400F28
:10174000634672460699A047B84213D1FF1C05981C
:10175000B9080C1830E01C48A200101800210C3009
:101760000090029101970391A8065C69400F6346BF
:101770007246E8E7164980050D40000C05430498C1
:101780003040810010480818C56017E027463740F0
:10179000BA000D4F641CD719FF68401C80C1674612
:1017A0006045F3D3A80600971D69400F07AB72464A
:1017B0000699A847002801D003484460FFF722FBA0
:1017C0000121484067E70000D4020020D406002031
:1017D0003F00FFFFF3B50F4C074681B00020A6681D
:1017E0002568FFF7DFFA002812D00B483C218088DB
:1017F000354088437907890E08430F2189018843C2
:1018000002998005800D89020843A9000919C86062
:10181000FEBD0000D4020020941F000013218901A6
:1018200041184868486070474058002800D001209F
:1018300070470921C901411808680860704740587D
:10184000002800D00120704705231B02C0188160CA
:10185000026170470322120280184068084000D0DD
:101860000120704705231B02C018C1604261704708
:101870003EB504466846017101200346009001AA66
:1018800021460648FFF79AFC022302AA2146034894
:10189000FFF782FC684600893EBD0000001F000083
:1018A00030B5FF220523CD7D002409321B02C31869
:1018B000002D8450986905D04B7ECA68D054487E6C
:1018C000401C487630BD1FB501246B461C70197250
:1018D000019206C8684690471FBDFF232533026862
:1018E0000021D150FF2302680933D1500068012143
:1018F00001607047F8B504462168224D89002048F0
:101900004919086061688900491908602068FFF773
:1019100071FE6068FFF76EFE19482168401C89005F
:101920004919086061688900491908600420FFF7B7
:1019300097FB0025144F012620793969C140C8075B
:10194000C00F02D0002D19D00FE020783146814021
:10195000F9600420FFF784FB2068FFF74BFE0420AA
:10196000FFF77EFB6D1C092DE6DB20798640FE60CB
:101970000420FFF775FB6068FFF73CFEF8BD000030
:101980000C06000000070050000500501FB5094B71
:101990006C4610330FCB0FC400231A466946054826
:1019A000FFF7B6FB002801D0FFF734F90148FFF735
:1019B0009FFB1FBD001F000001460320CA0701D086
:1019C000412040028A0700D50248490701D5014855
:1019D000401C704701820000FFB50C4685B0002115
:1019E0000491FF21053100261F466650FF21253155
:1019F0006650FF211D316650FF21093166500546B2
:101A00002035E11DFF31AE71FA31EE70012F0FD09C
:101A100001220A600121216221600168002909D0A8
:101A200013498160806803210902611848601BE046
:101A30000222EEE7014626312330039102900097FF
:101A400001962046079B039A029900F02AF8002885
:101A5000F5D1E878002807D02046FFF7DFFE002800
:101A600002D0FFF7A9FF0490049809B0F0BD000070
:101A70008602000030B51C78039D944208D20522EE
:101A80001202095D8018C1611878401C187006E0C8
:101A90000121002D02D0C161002030BD4161012033
:101AA00030BDFFB50F46097883B00446002904D144
:101AB000059802780C98824201D1012000E00020B4
:101AC0000190FF2025300025002907D02550FF2058
:101AD0001D302550FF200930255055E0FF212531CC
:101AE0002046FFF7A1FE012600282CD1FF211D3141
:101AF0002046FFF799FE002814D0FF201D30255006
:101B0000FF2125312046FFF78FFE00281BD10D98BD
:101B100000902046059B0C9A0699FFF7ABFF002822
:101B20003FD031E0FF2109312046FFF77DFE00283C
:101B30002AD0FF2009302550FF2125312046FFF70C
:101B400073FE002805D0FF202530255066613E70C9
:101B50001AE005990C980F78069ABC46874213D272
:101B600005231B02E3189B696746D3550A78521C6C
:101B7000D2B20A70411E8A4203D1022108020151E9
:101B800001E0824200D02662019800280BD0FF2697
:101B9000053631462046FFF747FE002803D0A55101
:101BA000002007B0F0BD0120FBE70000FFB50546AF
:101BB00087B00C460020FF21109F05310590605032
:101BC000FF2125316050FF211D316050FF21093177
:101BD0006050012149022E4608512036B071F07044
:101BE00001202062A060B31D0097029320460A9A4C
:101BF0000999FFF73FFF2868002807D01048A86020
:101C0000A868032109026118486016E023350A9884
:101C10000090019729462046099B029AFFF741FF51
:101C20000028F4D1F078002807D02046FFF7F6FD11
:101C3000002802D0FFF7C0FE059005980BB0F0BD5C
:101C400086020000F8B5044600200325C0432D029B
:101C50004E19B060254620352879002803D0A068A9
:101C600070601120F8BD5807C017401C2871180774
:101C700001D50620F8BDA3611046C1C86761266181
:101C8000E0609078287050680B26E061F60150788B
:101C90008E19B0601078002601280ED0002801D1DE
:101CA000980601D5012000E000206870009093782C
:101CB00052682046FFF77AFF05E06E70937852680D
:101CC0002046FFF789FE21680029D3D12E71F8BD87
:101CD000FF221D32002383508B8A8A68D25C8B8A54
:101CE0005B1C8B82052109024018C26170471FB539
:101CF00000226B461A70197281680191827506C8BC
:101D0000684690471FBD10B50178022901D001290E
:101D100002D14068FEF77EFF10BD00007CB501785F
:101D2000284D002934D001290CD002292DD16A4632
:101D30001170C068691C01900122C81DFFF7D4FA18
:101D400068463CE0406801781F48FEF78CFF01269A
:101D50001D4C002803D069460E70019006E0A06873
:101D6000E168081A05D000206946087008466968CD
:101D70008847A068E168081AA188884206D81149F6
:101D80000122491CC81DFFF7AFFA7CBDAE707CBDB7
:101D90000D480C491030FEF749FF002805D10949CC
:101DA000012208460830FFF737FB074910318868E1
:101DB000C968081AEBD1032069460870684669684B
:101DC00088477CBD08000020B4020020007801286C
:101DD00001D10149887070471C000020F0B50C4605
:101DE000012185B005464902FFF734FD03210902B0
:101DF0006F180026002824D0FF2125312846FFF740
:101E00001EFD00281DD0FF2025302E50812080008F
:101E1000B860A07E002801D10120686002216846D8
:101E200001702846FFF705FD0390E17D68460172C9
:101E3000E0680190E67526766268684621689047FA
:101E40002DE004212846FFF705FD002827D0FF21BB
:101E500009312846FFF7F3FC002820D02146284608
:101E6000FFF71EFDE07D617E884218D1207E0028AC
:101E700007D0617EE268E0752069E06026766676CC
:101E80000AE0A07E002801D1012068608120800046
:101E9000B860E675617EE2682046FFF714FDFF2713
:101EA0001D3739462846FFF7CAFC00280FD0A08A04
:101EB000A17D884204D221462846FFF709FF06E0AB
:101EC000EE51A17D002902D02046FFF710FFFF2729
:101ED000453739462846FFF7B2FC00280ED0EE51B0
:101EE000A07E002801D001202860E07D002805D0D8
:101EF000E675617EE2682046FFF7E5FC05B0F0BDBF
:101F000000300040000000000040004001000000E0
:101F1000100000000F000000000098010100000008
:101F200012000000110000000000980101000000F4
:101F3000090000000A0000000C0000000B00000077
:101F40000100000000E0D7010100000000000000D7
:101F500000000000FFFFFFFFFFFFFFFFFFFFFFFF8D
:101F6000FFFFFFFF000000000000000000E0D701BD
:101F700003000000FFFFFFFFFFFFFFFFFFFFFFFF6A
:101F8000FFFFFFFF000000000000000000E0D7019D
:101F90000300000029000000010000000100000013
:101FA000010000000100000001000000010000002D
:101FB00001000000020000004F766572666C6F77CA
:101FC0000D0A0000E41F0000000000202C000000AB
:101FD00032070000102000002C000020C40E00007A
:101FE000420700000024F400000000000000000090
:101FF0000000000000200040000000000000000081
:10200000000000000020004000000000B81F000099
:04000005000000C136
:00000001FF
